{
  "_format": "hh-sol-artifact-1",
  "contractName": "CrowdFunding",
  "sourceName": "contracts/fundingc.sol",
  "abi": [
    {
      "inputs": [
        {
          "internalType": "address",
          "name": "_beneficiary",
          "type": "address"
        },
        {
          "internalType": "uint256",
          "name": "_goal",
          "type": "uint256"
        }
      ],
      "stateMutability": "nonpayable",
      "type": "constructor"
    },
    {
      "anonymous": false,
      "inputs": [
        {
          "indexed": true,
          "internalType": "address",
          "name": "contributor",
          "type": "address"
        },
        {
          "indexed": false,
          "internalType": "uint256",
          "name": "amount",
          "type": "uint256"
        }
      ],
      "name": "Contribution",
      "type": "event"
    },
    {
      "inputs": [],
      "name": "beneficiary",
      "outputs": [
        {
          "internalType": "address",
          "name": "",
          "type": "address"
        }
      ],
      "stateMutability": "view",
      "type": "function"
    },
    {
      "inputs": [],
      "name": "contribute",
      "outputs": [],
      "stateMutability": "payable",
      "type": "function"
    },
    {
      "inputs": [],
      "name": "goal",
      "outputs": [
        {
          "internalType": "uint256",
          "name": "",
          "type": "uint256"
        }
      ],
      "stateMutability": "view",
      "type": "function"
    },
    {
      "inputs": [],
      "name": "isFunded",
      "outputs": [
        {
          "internalType": "bool",
          "name": "",
          "type": "bool"
        }
      ],
      "stateMutability": "view",
      "type": "function"
    },
    {
      "inputs": [],
      "name": "owner",
      "outputs": [
        {
          "internalType": "address",
          "name": "",
          "type": "address"
        }
      ],
      "stateMutability": "view",
      "type": "function"
    },
    {
      "inputs": [],
      "name": "raised",
      "outputs": [
        {
          "internalType": "uint256",
          "name": "",
          "type": "uint256"
        }
      ],
      "stateMutability": "view",
      "type": "function"
    },
    {
      "inputs": [],
      "name": "withdraw",
      "outputs": [],
      "stateMutability": "nonpayable",
      "type": "function"
    }
  ],
  "bytecode": "0x608060405234801561001057600080fd5b50604051610ad3380380610ad38339818101604052810190610032919061015a565b336000806101000a81548173ffffffffffffffffffffffffffffffffffffffff021916908373ffffffffffffffffffffffffffffffffffffffff16021790555081600160006101000a81548173ffffffffffffffffffffffffffffffffffffffff021916908373ffffffffffffffffffffffffffffffffffffffff16021790555080600281905550505061019a565b600080fd5b600073ffffffffffffffffffffffffffffffffffffffff82169050919050565b60006100f1826100c6565b9050919050565b610101816100e6565b811461010c57600080fd5b50565b60008151905061011e816100f8565b92915050565b6000819050919050565b61013781610124565b811461014257600080fd5b50565b6000815190506101548161012e565b92915050565b60008060408385031215610171576101706100c1565b5b600061017f8582860161010f565b925050602061019085828601610145565b9150509250929050565b61092a806101a96000396000f3fe6080604052600436106100705760003560e01c80637c6543031161004e5780637c654303146100e25780638da5cb5b1461010d578063d7bb99ba14610138578063f0ea4bfc1461014257610070565b806338af3eed146100755780633ccfd60b146100a057806340193883146100b7575b600080fd5b34801561008157600080fd5b5061008a61016d565b6040516100979190610573565b60405180910390f35b3480156100ac57600080fd5b506100b5610193565b005b3480156100c357600080fd5b506100cc61034b565b6040516100d991906105a7565b60405180910390f35b3480156100ee57600080fd5b506100f7610351565b60405161010491906105dd565b60405180910390f35b34801561011957600080fd5b50610122610364565b60405161012f9190610573565b60405180910390f35b610140610388565b005b34801561014e57600080fd5b5061015761052c565b60405161016491906105a7565b60405180910390f35b600160009054906101000a900473ffffffffffffffffffffffffffffffffffffffff1681565b60008054906101000a900473ffffffffffffffffffffffffffffffffffffffff1673ffffffffffffffffffffffffffffffffffffffff163373ffffffffffffffffffffffffffffffffffffffff1614610221576040517f08c379a000000000000000000000000000000000000000000000000000000000815260040161021890610655565b60405180910390fd5b600460009054906101000a900460ff1615610271576040517f08c379a0000000000000000000000000000000000000000000000000000000008152600401610268906106c1565b60405180910390fd5b60008060009054906101000a900473ffffffffffffffffffffffffffffffffffffffff1673ffffffffffffffffffffffffffffffffffffffff166003546040516102ba90610712565b60006040518083038185875af1925050503d80600081146102f7576040519150601f19603f3d011682016040523d82523d6000602084013e6102fc565b606091505b5050905080610340576040517f08c379a000000000000000000000000000000000000000000000000000000000815260040161033790610773565b60405180910390fd5b600060038190555050565b60025481565b600460009054906101000a900460ff1681565b60008054906101000a900473ffffffffffffffffffffffffffffffffffffffff1681565b600034116103cb576040517f08c379a00000000000000000000000000000000000000000000000000000000081526004016103c290610805565b60405180910390fd5b34600360008282546103dd9190610854565b925050819055503373ffffffffffffffffffffffffffffffffffffffff167f4d154d4aae216bed6d0926db77c00df2b57c6b5ba4eee05775de20facede3a7b3460405161042a91906105a7565b60405180910390a26002546003541061052a576001600460006101000a81548160ff0219169083151502179055506000600160009054906101000a900473ffffffffffffffffffffffffffffffffffffffff1673ffffffffffffffffffffffffffffffffffffffff166003546040516104a290610712565b60006040518083038185875af1925050503d80600081146104df576040519150601f19603f3d011682016040523d82523d6000602084013e6104e4565b606091505b5050905080610528576040517f08c379a000000000000000000000000000000000000000000000000000000000815260040161051f906108d4565b60405180910390fd5b505b565b60035481565b600073ffffffffffffffffffffffffffffffffffffffff82169050919050565b600061055d82610532565b9050919050565b61056d81610552565b82525050565b60006020820190506105886000830184610564565b92915050565b6000819050919050565b6105a18161058e565b82525050565b60006020820190506105bc6000830184610598565b92915050565b60008115159050919050565b6105d7816105c2565b82525050565b60006020820190506105f260008301846105ce565b92915050565b600082825260208201905092915050565b7f4f6e6c7920746865206f776e65722063616e2077697468647261770000000000600082015250565b600061063f601b836105f8565b915061064a82610609565b602082019050919050565b6000602082019050818103600083015261066e81610632565b9050919050565b7f46756e64696e6720676f616c20686173206265656e2072656163686564000000600082015250565b60006106ab601d836105f8565b91506106b682610675565b602082019050919050565b600060208201905081810360008301526106da8161069e565b9050919050565b600081905092915050565b50565b60006106fc6000836106e1565b9150610707826106ec565b600082019050919050565b600061071d826106ef565b9150819050919050565b7f5769746864726177616c206661696c6564000000000000000000000000000000600082015250565b600061075d6011836105f8565b915061076882610727565b602082019050919050565b6000602082019050818103600083015261078c81610750565b9050919050565b7f436f6e747269627574696f6e206d75737420626520677265617465722074686160008201527f6e20300000000000000000000000000000000000000000000000000000000000602082015250565b60006107ef6023836105f8565b91506107fa82610793565b604082019050919050565b6000602082019050818103600083015261081e816107e2565b9050919050565b7f4e487b7100000000000000000000000000000000000000000000000000000000600052601160045260246000fd5b600061085f8261058e565b915061086a8361058e565b925082820190508082111561088257610881610825565b5b92915050565b7f5472616e73666572206661696c65640000000000000000000000000000000000600082015250565b60006108be600f836105f8565b91506108c982610888565b602082019050919050565b600060208201905081810360008301526108ed816108b1565b905091905056fea2646970667358221220ecea847e26f64359ee1861988eeabf7dcc09d257fa9dc0f7868572d690aa20e464736f6c63430008140033",
  "linkReferences": {},
  "deployedLinkReferences": {}
}